0102000109NOTME        A11CEDD05EDB0BC01D0319
0102000109NOTME        A555A11AB1EC1A551C0319
0102010109NOTME        D1AB011CA11CD00DAD0319
0102010109NOTME        DEC1A551F1EDF11E010319
0102010109NOTME        0FF1C1A1CAB1EF11E50319
0102010109NOTME        50C1AB1E15ECCC20190319
0102020109NOTME        B100D1E5511FEB100D0319
0102020109NOTME        BADCE11FEBEDA221ED0319
0102030109NOTME        E5CA1A7310CA15A15A0319
0102030109NOTME        10ADF11E0FFD15CE0F0319
0102000109NOTME        000000000000111ADD0319
0102000109NOTME        ADD1EACCE55EDA5C110319
0102000109NOTME        DCFEEDB0B0DEADBEEF0319
0102000109NOTME        C0FFEE1EADEDD1E5E10319
0102000109NOTME        A5C11D1A1ACCE55BBS0319
0102000109NOTME        A5C114EA5E0FACCE550319
0102000109NOTME        10ADEDDAFF0D11F1F00319
0102000109NOTME        E1FEC5AC07AB1EF11E0319
0102000109NOTME        BA0BABD10DECAB005E0319
0102000109NOTME        B3111AB5BA51CCABA10319
0102000109NOTME        0B5E55ED0DDBA11CAD0319
0102000109NOTME        5011D1F1ED50DAC0DA0319
0102000109NOTME        C0D1F1EDBA5E16B10B0319
0102000109NOTME        C0DED15C105ED10CA10319
0102000109NOTME        F0551115ED5C51D15C0319
0102000109NOTME        1CEFA11F1E1D0FF1CE0319
0102000109NOTME        1005E1EAFD15BE11EF0319
0102000109NOTME        0551F1EDF1DD1EBACC0319
0102000109NOTME        F100DED0A5155EA1ED0319
0102000109NOTME        5AFE11FE512E501ACE0319
0102000109NOTME        DEC0DE5EEDEDFACADE0319
0102000109NOTME        FA151F1AB1E4A111E50319
